:020000041000EA
:1000000000B5324B212058609868022188439860DF
:10001000D860186158612E4B002199600421596104
:100020000121F02299502B49196001219960352056
:1000300000F044F80222904214D00621196600F024
:1000400034F8196E01211966002018661A6600F04E
:100050002CF8196E196E196E052000F02FF8012189
:100060000842F9D1002199601B49196000215960AB
:100070001A491B48016001219960EB211966A021F2
:10008000196600F012F800219960164914480160C1
:100090000121996001BC002800D000471248134993
:1000A000086003C880F30888084703B5996A0420EC
:1000B0000142FBD001200142F8D103BD02B5186610
:1000C0001866FFF7F2FF186E186E02BD00000240BE
:1000D000000000180000070000035F00212200005C
:1000E000F4000018222000A00001001008ED00E03C
:1000F000000000000000000000000000070B8FD58A
:1001000000040420C5020010217D0010C702001069
:10011000C7020010C7020010C7020010C70200107B
:10012000C7020010C7020010C7020010C70200106B
:10013000C7020010C7020010C7020010C70200105B
:1001400085950010A9950010CD950010F59500102B
:10015000C70200101D960010C702001001AC00106D
:10016000C7020010C7020010C70200101D95001042
:1001700051950010C7020010C7020010817D0010C9
:10018000A17D0010C7020010C7020010C7020010B6
:10019000C7020010C7020010C7020010C7020010FB
:1001A000C7020010C7020010C7020010C7020010EB
:1001B000C7020010C7020010C7020010C7020010DB
:1001C00072B62C4880F308882B4880F309880220F7
:1001D00080F31488BFF36F8F28482949086004F022
:1001E000CBFB05F087F927482749224A914202DADA
:1001F00008600431FAE725491F4A914202DA086093
:100200000431FAE72249234A234B14469A4204DA7E
:100210000868106004310432F8E719490C601F497E
:100220001F4A204B9A4204DA0868106004310432F5
:10023000F8E700201C491D4A914202DA08600431A7
:10024000FAE705F059F905F03DF9194C194DAC42A2
:1002500003DA216888470434F9E707F0FDFD164CFE
:10026000164DAC4203DA216888470434F9E7144993
:100270000847000000040420000C042000010010C6
:1002800008ED00E0555555550000042000040420F9
:100290000001001000010010C0010010C0BE0010DD
:1002A00000000020700C0020700C0020583300204B
:1002B000C0010010C0010010C0010010C0010010FA
:1002C000F75400107CE700F000F8FEE7F0B5444674
:1002D0004D4656465F46F0B46B46CB60C3689D46BC
:1002E000F0BCA046A946B246BB46F0BD07F076FD7D
:1002F00062B6281CA047002007F0B4FAFEE705F01C
:1003000037F9024A024B1360FEE7C04604ED00E0F5
:10031000000000807047C0469E2110B5C905041C2E
:1003200000F094FC002803D1201C00F0FDFB10BD60
:100330009E21201CC90500F065FA00F0F5FB802322
:100340001B069C466044F2E7F0B54F464646D6464B
:100350004402C0B547000E1C640A3F0EC50F002FB3
:100360003CD0FF2F42D00023802299469A46E400D9
:10037000D20414437F3F73025B0A984673001B0E3E
:10038000F60F002B1BD0FF2B13D042468021D2004A
:10039000C9041143884600207F3B2900FF1A4B46C1
:1003A0007140C9B20F2B00D9B5E0744A9B00D358F5
:1003B0009F464346002B3FD1FF3F023303E04346B5
:1003C000002B2DD1012329004A467140C9B21A439E
:1003D0000E2A38D86A48920082589746002C13D1CA
:1003E00004239946033B00279A46C4E7002C05D115
:1003F00008239946063BFF279A46BCE70C239946FB
:10040000093BFF279A46B6E7200000F029FC762733
:10041000431F9C4000237F4299469A463F1AAAE711
:10042000404600F01DFC4246431F9A4076235B4243
:100430001B1A90460020B0E703234A461A43914610
:100440000320FC33A9E70D00FF200022C005ED07C3
:1004500010432843E0BCBA46B146A846F0BD0D00A3
:1004600000200022F2E75346022BEDD0032B33D0BD
:10047000A046012B05D100200022E7E73500032824
:100480007AD03B007F33002B2DDD4246520707D048
:100490000F2241460A40042A02D004229446E04436
:1004A0004246120105D54246364B1A403B00904663
:1004B0008033FE2BC8DC42469201520AD8B2C5E70F
:1004C00080220025FF20D203C0E78022D2031442FD
:1004D00002D04346134249D08022D2032243520223
:1004E000FF20520AB2E70122D31A1B2BC3DC42467B
:1004F000DA4043469E37BB40591E8B411A4353078F
:1005000004D00F231340042B00D00432530129D50B
:10051000012000229AE7424663015501AB4215D201
:100520001B200022013F01261C0052005B00002C12
:1005300001DB9D4201D85B1B324301380028F3D117
:10054000581E8341134398460D009AE71A20012252
:100550005B1BE8E7023B5A4253415B4235000022F5
:10056000D8B273E792010020520A6FE71A43520291
:100570003500FF20520A69E74446ADE798B1001004
:10058000D8B10010FFFFFFF7F0B54F464646D646FC
:1005900043025B0A99464300C0B51B0E0E1CC50FF3
:1005A000002B00D185E0FF2B00D18BE04A46802153
:1005B000D200C90411437F2252429046984400233E
:1005C000894600279A4674027300640A1B0EF60FD0
:1005D000002B64D0FF2B1FD080227F3BE400D2048D
:1005E000434400201443591C0A2F2BDC7540022F72
:1005F00022DC013F012F00D9BBE002286BD001288B
:100600002AD100200022C005ED0710432843E0BC9A
:10061000BA46B146A846F0BD002C64D0032241463C
:10062000434617432A000131FF337240FF310A2F3E
:1006300000DDD7E0150003200122BA40A627FF0005
:100640003A4220D05346022B45D0032B00D1BBE0C9
:1006500050464C460128D4D00B007F33002B70DD70
:10066000620704D00F222240042A00D00434220161
:1006700003D5634B1C400B008033FE2B2BDCA20107
:10068000520AD8B2BFE79027BF003A4226D1B93FFD
:10069000FF3F17426DD03500A1468246D2E7002CBD
:1006A00041D101231F4343460120591C0A2F9DDDE0
:1006B000C8E74B46002B27D1002398460133042777
:1006C0009A4680E74B46002B18D1FF239846FD3B06
:1006D00008279A4677E7FF20002294E7802200252A
:1006E000FF20D2038FE702231F434346591CFF31EB
:1006F0000A2FA7DC0220FF33754078E7FF239846D6
:10070000FC3B0C279A465EE7484600F0A9FA4A46A9
:10071000431F9A4076235B421B1A9846002391465A
:1007200000279A464FE7200000F09AFA431F9C40AA
:1007300043461B1A763B0020591C0A2F00DC55E764
:1007400080E70122D31A1B2B00DD5AE79E312200DD
:100750008C40DA40631E9C412243530704D00F2390
:100760001340042B00D00432530137D5012000225E
:1007700049E7200C4A462404240C2700160C1204D6
:10078000120C74435743464350433A0C0019121855
:10079000944203D980204002844666443F041004FA
:1007A0003F0CC0198401671EBC41120C800E9219C7
:1007B00004439201144312010ED5012362081C4028
:1007C000144349E73500A14680224B46D2031A4321
:1007D0005202FF20520A16E719003DE7920100205D
:1007E000520A10E70F2FEDD180224B46D20313425D
:1007F000EAD01442E8D13500FF20224303E7C04687
:10080000FFFFFFF7F8B543024500C40F4802420A54
:1008100094464A005E0A2D0E9B09120EC90F8009EC
:10082000FF2A23D001277940AF1A8C420FD0002F26
:1008300000DC5DE1002A2FD1002800D190E07A1E73
:10084000012F00D11AE1FF2F1CD0170029E0002F43
:1008500000DC59E1002A52D0FF2D13D08022D204AF
:1008600010431B2F00DC6AE001332BE000283BD053
:100870008C424DD0FF2D00D18FE0002D00D1ABE098
:100880000C000300DB08002B67D08022D203134347
:100890005B02FF205B0A22E0FF2DF3D08022D2040E
:1008A000104301221B2F07DC2021C91B02008840B6
:1008B000FA40411E884102439B1A5A0156D407222E
:1008C0001A404ED00F221A40042A00D004335A0195
:1008D00047D5681CFE2D40D09B015B0AC0B2C00505
:1008E0001843E4072043F8BD012779408C42C1D169
:1008F000FF2D10D0002D00D1E7E00023C2E7002833
:100900002ED07A1E012F7FD0FF2FBBD01700A8E773
:10091000FF2D00D083E0FE276A1C174200D08DE037
:10092000002D00D0ADE0002B00D1D2E0002800D097
:10093000D1E00025DB085B025B0AE8B2CFE72021AB
:10094000C91B02008840FA40411E884110431B1811
:100950005A01B4D50135FF2D5AD1FF200023BEE73F
:100960003D00DB08FF2D00D18DE7E4E79E01B609CD
:10097000300000F075F90538864085421FDC2022E2
:10098000401B0130121A33009640C340721E96413C
:10099000002533435A0795D199E7FE276A1C174271
:1009A00011D1002D5AD1002B00D189E00028C0D0F0
:1009B0001A1A560100D496E00C00C31AEAE7584B05
:1009C0002D1A3340E6E71E1A720144D4002ECFD10F
:1009D00000240020002382E7FF25002B38D06E1E64
:1009E000012D6AD0FF2D00D14AE701241B2E07DC20
:1009F0002025AD1B1C00AB40F4405D1EAB411C43E9
:100A0000031B15000C0058E71B1802255A0133D5AB
:100A1000012244491A405B080B401343BAE7002DFA
:100A200031D1FF35002B52D0691E012D20D0FF2D72
:100A300029D01B2936DD1500431C43E7FF2A8CD043
:100A40001B185B0815005A0700D03BE7DB0872E76C
:100A50000C00030085E70C00C61A89E7002B14D1AF
:100A6000002800D00CE780230024FF20DB0336E7BA
:100A70001B1801355A01CBD4013D20E701251B1A73
:100A80001BE7002B01D10300FCE6002800D1F9E6AA
:100A90008022D203964203D3944501D20C00030076
:100AA000DB08F2E61D002026CD40711A8B40591E4E
:100AB0008B412B431B1815004AE70C00C31AFCE6B8
:100AC000002885D00C00030033E7FF25AAE70300C8
:100AD00047E703002DE71B185A01B7D5104A013527
:100AE0001340DB0827E7131E00D171E7DB0822E77C
:100AF000002F00D151E7561B002D01D135006CE7C6
:100B00008024E404234370E7002F00D103E7511B46
:100B1000002D01D10D0085E78025ED042B4388E7EA
:100B2000FFFFFFFBFFFFFF7D41024200C30F490AA9
:100B30000020120E7E2A03DD9D2A02DD094A981844
:100B40007047802000040143952A07DC9620821A12
:100B5000D1404842002BF3D10800F1E7963A91408A
:100B6000F7E7C046FFFFFF7F70B5041E0ED000F010
:100B700077F89E2301001B1A962B0CDC08282FD037
:100B800008398C406402640AD8B201E000200024D5
:100B9000C005204370BD992B16DC421F052800D0EC
:100BA0009440220010480240650709D00F252C40D0
:100BB000042C05D00432540102D59F2302405B1A55
:100BC0009201540AD8B2E3E7020020001B329040A1
:100BD0000200501E82410520401AC4401443E0E741
:100BE00064029620640AD3E7FFFFFFFB84460800F7
:100BF0006146FFE71FB500F0C9F8002801D40021C5
:100C0000C8421FBD10B500F049F84042013010BD88
:100C100010B500F0BBF8002801DB002010BD01205A
:100C200010BDC04610B500F0B1F8002801DD00206D
:100C300010BD012010BDC04610B500F057F80028C7
:100C400001DC002010BD012010BDC04610B500F031
:100C50004DF8002801DA002010BD012010BDC0466B
:100C60001C2101231B04984201D3000C10391B0ADC
:100C7000984201D3000A08391B09984201D30009A0
:100C8000043902A2105C40187047C04604030202F7
:100C900001010101000000000000000070B54200E9
:100CA0004E024C0045026D0A120EC30F760A240E46
:100CB000C90FFF2A10D0FF2C0CD00120A2420AD16C
:100CC000B54208D18B420FD0002A04D12800431E20
:100CD000984100E0012070BD0120FF2CFBD135437D
:100CE000F9D14B401800F6E70020F4E730B5420098
:100CF00044024D02C30F4800640A120E6D0A000E32
:100D0000C90FFF2A19D0FF280BD0002A1ED10028B6
:100D10000BD1002D27D0002C34D100292FD0080072
:100D200030BD002D28D1002A01D1002CF5D08B42F6
:100D300007D1002B23D01800F2E7002C1CD1FF288C
:100D400014D0581E022318400138E9E70028F8D0D3
:100D50008B42F6D18242F4DCEBDBAC42F1D80020CE
:100D6000AC42DDD2E5E7002CDAD0EAE7002D03D172
:100D70008B42E6D10020D3E702204042D0E7012099
:100D80004042CDE78B42E8D0DBE7C04630B54200B9
:100D900044024D02C30F4800640A120E6D0A000E91
:100DA000C90FFF2A1AD0FF280ED0002A1ED1002812
:100DB0000ED1002D2AD0002C0CD08B421DD0581EF5
:100DC00002231840013810E0002D0DD1002A20D157
:100DD000002C1ED1002923D0080006E0002C03D1EE
:100DE000FF28ECD1002D17D0022030BD0028E6D01E
:100DF0008B42E4D18242E2DC04DBAC42DFD800204B
:100E0000AC42F2D2002B0BD01800EEE7002CECD055
:100E1000D5E78B42D3D1F5E700208B42E5D0CEE772
:100E200001204042E1E7C04602B47146490849004A
:100E3000095649008E4402BC7047C04602B4714650
:100E400049084900095C49008E4402BC7047C0460D
:100E500003B47146490840004900095E49008E44C8
:100E600003BC704703B47146490840004900095A61
:100E700049008E4403BC7047414208401C210123B5
:100E80001B04984201D3000C10391B0A984201D36D
:100E9000000A08391B09984201D30009043902A24B
:100EA000105C401A7047C0461B1C1D1D1E1E1E1ED6
:100EB0001F1F1F1F1F1F1F1FF0B505000F2A33D94B
:100EC0000324030026000B431E401C4237D11500AB
:100ED000103D2D0903000C00AC462F013F1865683A
:100EE0005D60A5689D60E568DD60256810341D6063
:100EF0001D001033BD42F2D165460F230C2401358D
:100F00002D0149191340451914421AD08C59AC517E
:100F100004369C1B032CF9D8043B9B0801339B002F
:100F2000ED18C91803231A40561E002A06D00023C4
:100F3000CC5C1A00EC5401339642F9D1F0BD561E38
:100F4000F5E71A00F0E7C046114B70B51C680500C4
:100F5000A36B002B03D000221D615A6170BD1820C5
:100F600000F0AAF8031EA0630CD00A4A0021026018
:100F7000094A4260094A82600B228281012018617D
:100F80005961E8E700224221054B064800F050F87D
:100F9000100700200E33CDAB34126DE6ECDE0500F9
:100FA000F8BD001010BE0010184B70B51D68AC6B7A
:100FB000002C0ED020696169154A164B0AF014F80E
:100FC0000122002312184B4158004008226163613E
:100FD00070BD182000F070F8041EA8630FD00E4BEF
:100FE000012203600D4B43600D4B83600B23838113
:100FF00000230261436107480A4A064BE6E70022E4
:101000004E21094B094800F013F8C0461007002094
:101010002D7F954C2DF451580E33CDAB34126DE627
:10102000ECDE05002E7F954CF8BD001010BE0010C0
:1010300070B514001A000A4B06001B6884B0D8680B
:10104000002C0AD0074B084D019300913300290072
:10105000029400F01FF800F093FD044B1C00F2E72F
:101060001007002044BE001054BE001050BE0010F7
:10107000130010B50022FFF7DBFFC0460CB400B52B
:1010800083B004AB04CB019300F022F903B008BC99
:1010900002B018470EB400B582B003AB010005489A
:1010A00004CB0068019300F013F902B008BC03B050
:1010B0001847C0461007002010B5034B0100186800
:1010C00000F06AF810BDC0461007002010B5034BB1
:1010D0000100186800F004F810BDC0461007002099
:1010E00070B50500002915D00C1F2368002B23DBE9
:1010F000280001F099FA274A1368002B05D0A34273
:101100000BD92168601883422CD0280063601460DA
:1011100001F08CFA70BDA34210D81A005B68002B56
:10112000F9D1106811188C4218D02CD36360546028
:10113000280001F07BFAEDE7E418D9E711685018B0
:10114000A04214D01FD8216860188342EED11868DD
:101150005B684118216063605460E9E723681B18ED
:101160001360E5E718685B6841182160CDE72068E7
:101170000918501811608342DAD118685B68411869
:1011800011605360D4E70C2328002B6001F04EFA65
:10119000C0E7C046700C0020F8B50323CD1C9D436A
:1011A000083506000C2D1AD20C25A94219D830009A
:1011B00001F03AFA284F3A68002A16D0140004E0E9
:1011C00063682200002B10D01C0023685B1BF7D43F
:1011D0000B2B2DD8636894423BD053601AE0002D4E
:1011E000E3DA0C230020336021E07B68002B2AD057
:1011F0002900300008F074FB431C1DD00323C41CDD
:101200009C43A04205D0211A300008F069FB013050
:1012100012D02560300001F009FA200007220B30BF
:10122000231D9043C21A984201D01B1AA350F8BD47
:101230002360E4182560EDE70C233000336001F0F3
:10124000F5F90020F3E70021300008F049FB786051
:10125000CEE73B60DEE7C046700C0020936810B517
:10126000013B9360002B04DA9469A34207DB0A294F
:1012700005D01368581C10600800197010BD00F0EC
:1012800089FBFBE7F8B506000F00002B0DD014001A
:10129000D51802E00134AC4207D03A003000217882
:1012A000FFF7DCFF431CF5D1F8BD0020FCE7C0468A
:1012B00010B5140092680023002A05D0220000F027
:1012C0008DFE00220300A26000221800626010BDA3
:1012D000F0B5454657464E46DE46E0B5814688465F
:1012E00017001D009FB0002803D08369002B00D198
:1012F000A2E0A44B984500D1A4E0A34B984500D1AF
:10130000B2E0A24B984500D138E143469B891B07C8
:1013100000D49FE043461B69002B00D19AE00023D4
:1013200006AC6361203363761033A376534605958C
:10133000974D03933B78002B00D1B3E03E0004E0CF
:1013400073780136002B00D192E0252BF8D1F31BE6
:101350009A46BE4200D08FE03378002B00D1A1E046
:10136000012300225B420692079300220023089289
:1013700009930023433201270136A354A36506E0F5
:101380003B00401B83402268013613432360052243
:101390002800317801F062F80028F1D12368DA06DC
:1013A00002D543222021A1541A0702D543222B2122
:1013B000A15431782A2900D080E0059A111D1268C5
:1013C0000591002A00DAB0E0E2607178731C9B4658
:1013D0002E2900D187E06F4E0322300001F03EF845
:1013E000002808D04023801B8340226813432360D9
:1013F00001239C46E3445B461978062266485F1C3D
:10140000217601F02BF8002800D194E0634B002BEB
:1014100000D17BE005AA0092210042464846604B7D
:1014200000E000BF0390039B01333BD0039A636944
:101430009446634463617DE700F0A8FD514B9845F5
:1014400000D05AE74B465B68984643469B891B078A
:1014500000D55FE74146484600F012FB002800D166
:101460005DE70120404222E04B469B6898464CE7EE
:10147000F31B9A46BE4215D000239B462B004D46D7
:10148000B1464646B8465F469B4602E00137BA453C
:1014900043D9434632002800D95DFFF7DFFE013013
:1014A000F4D1B04643469B895B06DAD460691FB02D
:1014B000F0BCBB46B246A946A046F0BD0800303895
:1014C00009280CD8E3681A0093009B1871785B0018
:1014D0001A180800303801360928F5D9E260B346F9
:1014E0002E2900D077E75B4659782A292DD1981C00
:1014F000059B1A1D1B6805926360002B02DA01230D
:101500005B4263605B468346997864E70722059BEC
:10151000073393430833059388E76269B046524422
:101520004E466261A9465D4616E75242E2600222DB
:101530001343236049E705AA00922100424648462A
:10154000174B00F0DFF803906DE7012308009C467D
:1015500000233038E3446360092800D93BE71A00D0
:101560005E4693009B1871785B001A1808003038AB
:1015700001360928F5D9B34662602CE74B46DB6893
:101580009846C2E6E0B30010C0B30010A0B300104C
:1015900084BE00108CBE001090BE00100000000041
:1015A0008512001010B504001300034A10680A00E9
:1015B0002100FFF78DFE10BD10070020F8B557463B
:1015C0004E464546DE46E0B51F000A9B92469846C9
:1015D0000A698B6806000C009A4200DA1A0053462A
:1015E0001A604323E35C002B02D0514601320A60AB
:1015F0002268910660D55346524606201B68023386
:10160000136022681100104208D11920834600207F
:10161000E1688146A344994246DC11004323E35C20
:101620005A1E934189060AD53020E11843310870CB
:1016300045215A1C615CA21843320233117022000A
:10164000390030004332C04701301CD053460621D8
:1016500018682368E2680B40042B33D0A368216923
:101660008B423ADD002291465B1A994400251A34D8
:1016700002E001354D4530DA012322003900300007
:10168000C0470130F5D101204042F0BCBB46B24614
:10169000A946A046F8BD01239C465346E5681B6851
:1016A000E144ED1A4D4525DD01235A46390030004D
:1016B000C0470130EFD1E6E7062111420FD05A1E94
:1016C0009341BCE7121AD343DB17134099462169B3
:1016D000A3688B42C8DC002AC8DC0020D5E71920AB
:1016E0005346834600201B68E1688146A344994223
:1016F000DADC92E743232168E35C5A1E93418906B2
:1017000092D49CE7F0B54E46994643239C465746F3
:101710004546DE468C446346E0B587B002930C0034
:10172000097E90460700109A002912D00B00583B02
:10173000DBB2202B46D894489B00C3589F462368B1
:10174000190600D4E7E01368191D11601B6862696F
:101750001A600023029D23614B462100009338004C
:10176000434605AAFFF72AFF01301ED02A00414652
:1017700038002369C847013017D02368E068059E08
:101780009B071BD5B04219DD19239A460025A244B8
:1017900004E0E0680135831BAB420FDD01235246B4
:1017A00041463800C8470130F3D10120404207B01C
:1017B000F0BCBB46B246A946A046F0BDB042F6DA40
:1017C0003000F4E72500422301204235E154432351
:1017D00000222061E254BFE72368190602D45906AB
:1017E00000D5A6E01168081D10600A681600002ADE
:1017F00000DAACE0654B9B460A2303934BE0236879
:10180000180602D45B0600D58EE01368181D106020
:101810001E685E4B9B466F2900D1AAE00A23039302
:1018200036E013682500191D11601A684223012053
:101830004235E254CBE71368191D11601D68002181
:101840002800626800F00AFE002800D19AE0401BE0
:101850006060BCE7202321680B432360452178208A
:1018600060544B498B46190631D459062FD511685F
:10187000081D0E881060DA0702D52022134323606A
:10188000002E03D120222368934323601023039367
:1018900043230022E2546368A360002B1EDB042173
:1018A00022688A432260002E18D1029D002B63D14A
:1018B000039B082B24D0029B5B1B23614CE7452331
:1018C0005821E154236831498B461906CDD511685A
:1018D000081D10600E68CEE72368BFE7039B9A4699
:1018E000029D3000514609F077FB5B465B5C013D91
:1018F0002B70330006005345F3D2039B082BDAD13B
:101900002368DB07D7D5626823699A42D3DC30238A
:10191000013D2B70CFE75B0612D513686169181D76
:1019200010601B68198014E71368181D1E8810606A
:101930006FE71168081D106000228E5E320056E7C6
:101940001368191D11601B6862691A6001E7432260
:101950002D21A1546268A260002A02DB0422934375
:1019600023600A239A46094B76429B460A23039337
:10197000B6E7082303938BE75B4625001B784235C7
:101980002B7095E7606822E71CB3001098BE00102A
:10199000ACBE0010F8B505000E001400002802D0FF
:1019A0008369002B29D02D4B9C422BD02C4B9C4281
:1019B00046D02C4B9C424ED0A369A360A3891B0741
:1019C00026D52369002B23D0FF22F7B26169164088
:1019D0002268D31A99422ADD0133A1680139A16036
:1019E000511C2160177062699A422BD0A389DB07D2
:1019F00001D50A2E26D03000F8BD00F0C7FA174BEB
:101A00009C42D3D16C68A369A360A3891B07D8D477
:101A10002100280000F034F8002819D1FF222369A2
:101A2000F7B2616916402268D31A9942D4DC2100CA
:101A3000280000F035F900280AD101232268CCE7FC
:101A4000AC68B9E72100280000F02AF90028D2D0BC
:101A500001267642CFE7EC68AEE7C046E0B300105F
:101A6000C0B30010A0B30010030010B50A00034972
:101A700008681900FFF78EFF10BDC0461007002050
:101A80003B4B70B51D6806000C00002D02D0AB6901
:101A9000002B1AD0374B9C421DD0374B9C4249D06B
:101AA000364B9C425DD00C22A35E1A0718D52269E2
:101AB000002A1FD0D9072DD50021A160616900201F
:101AC0004942A161002A2DD070BD280000F05EFAC5
:101AD000284B9C42E1D16C680C22A35E1A07E6D425
:101AE000DA0640D55A0727D4226908210B43A3817F
:101AF000002ADFD1A0218020890080001940814286
:101B0000D8D02100300000F023FC0C22A35E226913
:101B1000D907D1D40021980700D461690020A160C1
:101B2000002AD1D11A06CFD5402213430120A38128
:101B30004042C9E7AC68B6E7616B00290AD02200D1
:101B40004432914204D03000FFF7CAFA0C22A35E5F
:101B50000022626324229343002262602269226091
:101B6000C3E7EC689FE70922326037321343DDE7B1
:101B700010070020E0B30010C0B30010A0B30010A5
:101B8000062010B500F00EFE012007F0D5FEC0467D
:101B9000F0B5C64600B50C228B5E07000C001A0794
:101BA0003ED44A68002A60DDE56A002D36D0002266
:101BB0003E683A60DA045DD4002201233800216ACD
:101BC000A8470200431C60D00C21635EE56A5B07F6
:101BD00006D56368D21A636B002B01D0236CD21A2E
:101BE00000233800216AA847431C45D13B68002BDD
:101BF00042D01D2B01D0162B2DD100236360236909
:101C00002360616B3E60002908D023004433994271
:101C100002D03800FFF764FA00236363002021E05C
:101C20000E69002EFAD00D680022AD1B0E609B07D6
:101C300000D14A69A260002D04DCEFE736182D1AA6
:101C4000002DEBDDA36A3200984638002B00216A94
:101C5000C0470028F2DC40220120A3894042134300
:101C60001BB2A38180BCB846F0BD0A6C002A9BDC85
:101C70000020F7E7626DAAE7002363602369236011
:101C8000A389DB04BDD56065BBE73B68002B9BD017
:101C90001D2B01D0162BDED100203E60E2E7C046AE
:101CA0000B6970B505000C00002B16D0002802D07F
:101CB0008369002B15D00E4B9C4210D00D4B9C42DB
:101CC00012D00D4B9C4211D00C22A35E002B04D0ED
:101CD00021002800FFF75CFF00E0002070BD6C6869
:101CE000F2E700F053F9E6E7AC68EDE7EC68EBE704
:101CF000E0B30010C0B30010A0B3001070B5041E14
:101D000029D01A4B1D680369002B1BD0002D02D06F
:101D1000AB69002B18D0164B9C420ED0154B9C4241
:101D20001FD0154B9C421ED00C22A35E002B09D065
:101D300021002800FFF72CFF70BD6C680C22A35E09
:101D4000002BF5D10020F7E7280000F01FF9084B21
:101D50009C42E3D1F1E7094B0949186800F0D4FA35
:101D6000EAE7AC68E0E7EC68DEE7C0461007002071
:101D7000E0B30010C0B30010A0B3001018B30010FF
:101D8000A11C00100020704710B5024900F0BCFAF9
:101D900010BDC046A11C00100020704770B568251A
:101DA0004B1E5D430E0029007431FFF7F5F9041E48
:101DB00009D000232A00036046600C300021A06097
:101DC000683200F0DDFB200070BDC046F8B5254B41
:101DD00007001E68B369002B26D048367368B468C4
:101DE000013B03D51BE06834013B18D30C22A55EF0
:101DF000002DF8D120001C4B08220021E36065660D
:101E00002560A560656025616561A5615C3000F0B5
:101E1000B7FB6563A563A564E5642000F8BD35687C
:101E2000002D05D02E00D9E7300000F01FF8D4E7D0
:101E3000D62138004900FFF7AFF9041E0DD0042366
:101E4000D0220560250043600C300021A0605200C4
:101E500000F096FB34602E00C0E70C2330603B603E
:101E6000DBE7C04618B300100100FFFFF0B5D6460F
:101E70004F464646374BC0B5836200238364C36434
:101E80000365354B05001B6898425FD02800FFF7BB
:101E90009DFF68602800FFF799FFA8602800FFF702
:101EA00095FF6E680024E86004233000346074609D
:101EB000B4607466F36034617461B4610822002117
:101EC0005C3000F05DFB254B254F9A467362254B35
:101ED00037639946B362244B3662F362AE68984624
:101EE0003000224B34607460B4607466F360346117
:101EF0007461B461082200215C3000F041FB53465C
:101F000073624B46B36243463763F3623662EE68F0
:101F1000174B3000F36034607460B46074663461F1
:101F20007461B461082200215C3000F029FB534643
:101F300073624B46B3624346F362012337633662F2
:101F4000AB61E0BCBA46B146A846F0BD012383614F
:101F50009CE7C046891D001018B300101529001019
:101F6000B129001041290010812900100900010049
:101F70001200020010B5034B0349186800F0C4F9C1
:101F800010BDC04618B30010A11C0010836910B525
:101F9000002B01D1FFF76AFF10BDC0467047C04655
:101FA0007047C0467047C0467047C04610B5034BE7
:101FB0000349186800F088F910BDC04610070020DA
:101FC000851D001010B5034B0349186800F07CF91B
:101FD00010BDC04610070020991D0010F0B5454601
:101FE000DE4657464E46E0B5936883B00C009046F7
:101FF0000090002B25D00C228B5E1A0729D50A6988
:10200000002A26D0424616689A072ED5AB4B0027E9
:1020100000259946002D5DD02B004D4500D9A74BDA
:10202000A26A216A924600983A00D04700285BDDF8
:10203000434642469B683F181B1A2D1A9360002B9B
:10204000E8D1002003B0F0BCBB46B246A946A0468A
:10205000F0BD21000098FFF713FD002849D10C22A4
:10206000A35E424616689A07D0D4DA0744D4002209
:1020700091468022920000279346002F25D05A4691
:10208000A568134200D17DE0AA46BD4200D9ADE06B
:102090009022D200134200D0B9E02068524649464F
:1020A00000F016FAA3685B1B3D000027A3602368BD
:1020B00053442360434642469B68A9445B1B93609C
:1020C000BFD00C22A35E002FD9D132687768914629
:1020D0000836D2E73768756808369BE72100009814
:1020E000FFF7DEFD00282CD00C22A35E4022134314
:1020F000A38101204042A5E700230027B14600202C
:102100009A461E00002F28D000282FD03300BB464F
:102110009F4200D99B4620682269A5686369904266
:1021200003D9ED18AB4500DD9FE05B4562DCA56A95
:102130005246216A0098A847051ED5DD0120761B6E
:10214000CCD0434642469B68AA445B1B7F1B9360EE
:10215000002B00D175E7002FD6D108224B469446BC
:102160005F68E144002FF8D01B689A463A000A21C4
:10217000504600F073F9002800D196E05346013034
:10218000C61AC3E720682369984217D863699A463C
:10219000BB4213D8802338001B069F4200D3484817
:1021A000514608F039FF5346A56A43434A46216A1F
:1021B0000098A847051E97DD7F1B7BE7BD4200D92D
:1021C0003D002A00494600F083F9A36822685B1BA2
:1021D0005219A3602260002BEED121000098FFF776
:1021E0005FFD002800D07FE77F1B63E73D00BA4614
:1021F000206853E75A46514600F06AF95A46A368E8
:102200005D469B1AA36023685B44236096E7606980
:1022100022682169551A42001218D00F8218681CD2
:102220005210C01992460195904201D9824602008F
:102230005B0529D511000098FEF7AEFF051E37D0CB
:10224000019A2169FEF738FEA3891E4A13408022B5
:102250001343A3815246019B2561E818D31A3D0020
:10226000BA4620606261A36018E751462A0000F078
:102270002FF9236821005B1900982360FFF710FDF8
:10228000002800D15AE72FE7009800F0D1F9051E89
:10229000E0D1009D21692800FEF722FF8022A3895A
:1022A0009343743A1BB22A6020E77B1C1E002EE782
:1022B0000C23009A13600C22A35E17E700FCFF7F3B
:1022C000FFFFFF7F7FFBFFFFF0B5C6464830884623
:1022D0000700002600B57D68BC68013D0CD4A389C9
:1022E000012B06D90E22A35E013302D02000C04785
:1022F00006436834013DF2D23F68002FEBD1300035
:1023000080BCB846F0BDC046F8B54746CE4680B55D
:10231000070080468946002648377D68BC68013D35
:102320000DD4A389012B07D90E22A35E013303D05C
:1023300021004046C84706436834013DF1D23F685A
:10234000002FEAD13000C0BCB946B046F8BDC04647
:10235000F0B50C228B5E06000C0097B09A0707D5EB
:1023600023004733236023610123636117B0F0BD6D
:102370000E22895E002930DB6A4607F0CFFA00287A
:1023800029DBF023019D1B021D401F4B80279C462B
:1023900065446B425D41FF0039003000FEF7FCFEF2
:1023A000002826D08021194AB262A28920600A43FF
:1023B000A28120616761002DD8D030000E23E15E3C
:1023C00007F0B8FA0028D1D00322A3899343012251
:1023D0001343A381CAE70C22A35E002540271B06F6
:1023E000DAD48027FF0039003000FEF7D5FE002840
:1023F000D8D10C22A35E9A05B8D4032293430222BB
:102400001343A381ACE7C04600E0FFFF891D001025
:1024100070B50C001E000E23C95E150096B0002991
:1024200014DB6A4607F07AFA00280FDBF0230199E3
:102430001B021940084B9C4661444B425941802382
:10244000DB00002031602B6016B070BDA389002135
:102450001B06F4D54023F4E700E0FFFF70B5CCB2D3
:1024600083070FD0531E002A0AD0032504E0013051
:10247000284208D0013B03D30278A242F7D170BDB5
:102480000020FCE71300032B12D9FF220A4015029B
:10249000AD182A040C4EAD1803E0043B0430032BA6
:1024A00006D9026809496A40511891433142F4D073
:1024B000C218002B03D1E3E701309042E0D003784B
:1024C000A342F9D1DBE7C04680808080FFFEFEFE9C
:1024D000F0B588420AD98B18984207D2531E002AB9
:1024E00003D0CA5CC254013BFBD2F0BD05000F2AE9
:1024F0000AD8561E002AF8D00023CC5C1A00EC54EF
:1025000001339642F9D1F0E70324030026000B4380
:102510001E401C4230D11500103D2D0903000C0057
:10252000AC462F013F1825681D6065685D60A56891
:102530009D60E5681034DD601D001033BD42F2D1AE
:1025400065460F230C2401352D0149191340451907
:10255000144213D08C59AC5104369C1B032CF9D86F
:10256000043B9B0801339B00ED18C91803231A4054
:10257000561E002AC0D1B8E7561EBDE71A00B8E7BC
:10258000F0B50500830749D0541E002A45D003004A
:102590000326CAB202E00135013C3ED301332A7062
:1025A0003342F8D1032C30D9FF220A401502AD186E
:1025B0002A04AD180F2C34D92700103F3F093E01E3
:1025C000B4461E001A0010366644156055609560CA
:1025D000D56010329642F8D101373F01DB190F2741
:1025E0000C22274022403C00002A0ED03E1FB60895
:1025F000B400A4461A001C1D644420C2A242FCD1AF
:1026000003240136B6009B193C40002C05D0C9B20A
:102610001C19197001339C42FBD1F0BD030014005A
:10262000C0E72700E2E7C0467047C0467047C04693
:10263000F8B506000C00150000291BD0002A15D0A3
:1026400000F0BCF92700A84201D33800F8BD2900EA
:102650003000FEF7A1FD071E0AD021002A00FEF778
:102660002BFC21003000FEF73BFDEEE7FEF738FDC6
:102670000027EAE71100FEF78FFD0700E5E7C046F7
:10268000436C10B50400002B01D0002010BD802148
:10269000FEF782FD6064002806D00200002380322D
:1026A00008C09042FCD1F0E701204042EEE7C0466E
:1026B00070B505000C0016001F2907D8406C0028D3
:1026C00009D0A40004192068266070BD1623036099
:1026D00001204042F9E780212800FEF75DFD01005E
:1026E00003000022686480310028F1D004C38B42CB
:1026F000FCD1E6E770B505000C001F291ED8436C1D
:10270000002B0ED08A009B181A68002A09D0012AD3
:1027100005D0511C0ED000212000196090470020E8
:1027200070BD280000F0F2F822000100280000F03F
:10273000D9F8F5E7162303600120F1E716230360BB
:1027400001204042ECE7C04670B505000C001F298F
:1027500024D8436C002B14D0A2009B181A68002ABE
:1027600009D0511C0BD0012A07D00021200019608C
:102770009047002070BD0120FCE70320FAE702200B
:10278000F8E78021FEF708FD031E686406D00021EB
:102790000200803002C29042FCD1DDE701204042BD
:1027A000E8E7C046144B70B504001D681F281DD80B
:1027B0006B6C002B0DD082009B181A68002A08D081
:1027C000012A04D0511C0DD000211960904700202F
:1027D00070BD280000F09AF822000100280000F0E7
:1027E00081F8F5E7162301202B60F1E7162301207D
:1027F0002B604042ECE7C04610070020114B70B53B
:1028000004000E001D681F2807D8686C002809D036
:10281000A40004192068266070BD16232B600120D7
:102820004042F9E780212800FEF7B6FC01000300D2
:102830000022686480310028F1D004C38B42FCD1AF
:10284000E6E7C046100700200C4B10B51C68636C0F
:10285000002B01D0002010BD80212000FEF79CFC41
:102860006064002806D002000023803208C0904235
:10287000FCD1EFE701204042EDE7C0461007002001
:10288000174B70B504001D681F2825D86B6C002BF2
:1028900014D0A2009B181A68002A09D0511C0BD032
:1028A000012A07D00021200019609047002070BD48
:1028B0000120FCE70320FAE70220F8E78021280046
:1028C000FEF76AFC031E686406D000210200803017
:1028D00002C29042FCD1DCE701204042E7E7C0465B
:1028E00010070020002370B5074D040008001100F8
:1028F0002B6007F027F8431C00D070BD2B68002B1D
:10290000FBD02360F9E7C046780C002010B507F033
:102910001FF810BD70B50C000E25495F06F0D4FFFE
:10292000002803DB636D1B18636570BDA389024A31
:102930001340A381F9E7C046FFEFFFFF0020704777
:10294000F8B50C001F000C23C95E05001600CB056E
:102950000AD40A4B320019402800A1810E23E15EFF
:102960003B0006F0B8FFF8BD0E23E15E0022022313
:1029700006F0AFFF0C23E15EEBE7C046FFEFFFFF81
:1029800070B50C000E25495F06F0A3FF431C07D06D
:102990008023A2895B0113431BB26065A38170BDD4
:1029A000A389024A13401BB2F8E7C046FFEFFFFFBE
:1029B00010B50E23C95E06F090FF10BD0B1F1B68FB
:1029C000181F002B00DB70470B58C018FBE7C046F0
:1029D00030B5032A19D903000B43551E9B0710D0AD
:1029E000002303E05A1C9D4212D01300C25CCC5C51
:1029F000A242F7D0101B0CE0043A04300431032A41
:102A000003D904680B689C42F6D0551E002AE7D112
:102A1000002030BD80220300802130B58024920048
:102A20000240C005C00FE4000901DD040DD500011E
:102A3000002A01D020221043234201D0402210431B
:102A40000B4201D08023184330BD002A01D002225E
:102A50001043234201D0042210430B42F4D0082338
:102A6000F1E7F82210B50C00411EFF390023520196
:102A7000914202D2FFF7CEFF03001800A04710BD1D
:102A800001218140024B1A780A431A707047C046F0
:102A90003C2E002001218140024B1A788A431A7093
:102AA0007047C0463C2E002073B5030401AA108075
:102AB0001B0E072B1DD81278062A1AD801250724C9
:102AC00003202E0063439B18DA0892B25043234040
:102AD000084A9E4080180022F6B20B00D340845C66
:102AE0002B405B42634033405C4084540132032AF4
:102AF000F3D173BD6C27002037B5030401AA108001
:102B00001B0E0020072B17D81178062914D807228E
:102B10000324534301255B1801001A40DB089BB2D4
:102B20005C43064BE418635CD3402B408B4001317F
:102B30001843C0B20329F6D13EBDC0466C27002021
:102B4000012370B51E00864030001E008E40074DE8
:102B500031002C78934022000143C8B29A432140AF
:102B6000884201D11C43E2B22A7070BD3C2E002085
:102B70000721054B054A1B7812789A4200D170470D
:102B800001330B40F9E7C046452E0020442E0020BB
:102B900070B50C4C23781A00824310002270050097
:102BA0000722154010420BD1984209D0064B5B78A2
:102BB0005B0705D5C008FFF76DFF044B25701D802E
:102BC00070BDC0463E2E00208E2E0020402E0020DC
:102BD000024A1378834313707047C046392E002091
:102BE000044A1378002B03D000231370024A138089
:102BF0007047C046382E0020422E0020030010B53A
:102C0000E72808D8DF2808D8312861D00ED829282D
:102C100055D02A2862D0180010BDE0380728FAD80D
:102C2000FEF702F918F9252A38F93F44392808D067
:102C3000822806D03528EED12F4A12789206EAD59E
:102C400006E02D4A1178890750D152781207E2D553
:102C50002923E0E70121284802780A4236D140784A
:102C60000842D8D0E323D206D5D50023D3E7224AA1
:102C700012785107F6D4CEE71F490A78500733D4AB
:102C80004978C90732D410210A4051424A41524280
:102C90001340C0E7184A51788907BCD51278E7235A
:102CA000E1E7154A12781107F9D4B4E712490A7816
:102CB00010071DD449788907E5D5E423ABE70E4A10
:102CC0001178890616D452781207A4D53923A2E7C1
:102CD000094A127852069ED52A239CE7064A1278A2
:102CE000520698D5312396E7E22394E7E02392E752
:102CF000E62390E735238EE78E2E002030B5244C56
:102D000021784B070DD514220240043A53425A4110
:102D100018230340083B5D426B419A4201D00C23CB
:102D200058400B070DD514220240143A53425A4121
:102D300018230340183B5D426B419A4201D00C239B
:102D400058406478E3070DD511220240013A5342FE
:102D50005A4118230340083B5D426B419A4201D01F
:102D600009235840A4070DD511220240113A5342BD
:102D70005A4118230340183B5C4263419A4201D0F8
:102D800009235840C90601D51823984330BDC046D1
:102D90008E2E002070B5FFF731FFA4230400DB0165
:102DA000984240D2A023DB01984200D38CE0E72870
:102DB0000DD98023DB0198421BD3C0B2FFF71EFF61
:102DC000F0231B012340514C03431C4308E0DF2840
:102DD00027D8A42806D8032823D8013C63425C41A5
:102DE000A4B21EE00200CD3A92B2122AEDD900241C
:102DF00017E08026B601B04200D376E0431EFF3BC9
:102E0000013EFF3E9BB2B342F1D2000AC0B2FFF7CF
:102E100075FF0500E0B2FFF7F1FE2D0235402843B3
:102E200084B2201C70BDA523DB0198421CD2384B14
:102E3000984236D8374B984209D9032101220140E4
:102E40008A40C3065B0F5B01334C1343BDE7334B32
:102E5000984220D80322C4B2A3081440023AA240E8
:102E60005B012F4C1343B0E72E4B984208D81F202C
:102E70002D4B20409C421ED82C4C00020443D0E72E
:102E80002B4BC3189BB21F2BB1D8F82304025B0154
:102E90001C40284B03E01F23274C03401B021C430C
:102EA000BFE70321012201408A40C3065B0F5B019B
:102EB000224C134389E7FFF721FFF8238024000207
:102EC0005B011840A401D9E71F202040FFF716FF3F
:102ED000E3051B0F1B02C20605D5FF2200011040AF
:102EE000174C034371E700B2FAE7C004C00EFFF7C6
:102EF00005FF0500E0B2FFF781FEF8232D025B011C
:102F00001D4005432E43B4B28BE7C04600A0FFFF2F
:102F10005F5200003F520000008CFFFF1F52000074
:102F2000008DFFFFBF5200009F520000F4A0000080
:102F300040ADFFFFF0A00000F1A00000008AFFFFFD
:102F40000090FFFF00207047002070470122014BD6
:102F50001A707047E8260020704730BFFDE7000078
:102F600010B55200054C1218091A035BDB430B52D3
:102F700002309042F9D1012010BDC04600E01F1080
:102F80007FB5294A030CDBB2D45C050AEDB22300FD
:102F90002100C6B2002D2BD00620FF21704308F07F
:102FA0003BF85522524242437600B218032656435C
:102FB000FF21F6B232008E1B4B1B6A43754312127F
:102FC0002D128A1A491B6343624361431B1212127A
:102FD0000912DBB2D2B2C9B2062820D8FDF72EFF03
:102FE000040613161A1F040022000C00210014000E
:102FF000FF22200011401040090213401B04084327
:10300000184304B070BD1A000B00EFE711001A005E
:103010002300EAE722001C0013000A00E6E7110083
:1030200022001C00F0E7C046E6BA001013B51C00F1
:103030006B4659709A7018700098FFF7A1FFC1B2E3
:10304000020403020448120E00781B0E201AC0B2BC
:1030500000F0B8FA13BDC0460C0900200A4A1378E4
:10306000032B0AD803210B4001310B431370D37893
:10307000782B01D97823D3707047AB2BF7D9032174
:103080000B405B39F1E7C046302E00200B4B70B58A
:103090001B78DB0702D504F0EDFA70BD084DAC7863
:1030A000EB78A342F7D9002328781A00201A1900D8
:1030B000C0B2013400F086FAE4B2F1E7302E00200D
:1030C0000C090020F7B50D4B0E001B78170001907E
:1030D000DB0706D50A4DAC78EB78A34202D8FFF7A0
:1030E000D5FFF7BD28783B00201A32000199C0B205
:1030F000013400F067FAE4B2EEE7C046302E00205B
:103100000C09002070B50F4B0400DD780379012213
:1031100018001040134200D028000222190011406C
:10312000134200D0290004261A003240334200D056
:103130002A00FFF7C7FF07222379013313402371C9
:1031400070BDC046302E00200C4B07B51B78DB0746
:1031500012D56B4618705970131C782A00D9782341
:103160006A4693700098FFF70BFF01040202090EF4
:10317000C0B2120EFFF7A6FF07BDC046302E0020DA
:1031800010B50400054B02799A5C054B9978587884
:10319000FFF7DAFF23790133237110BDB6B90010B0
:1031A000302E002010B50400044B0079DA789978AD
:1031B000FFF7CAFF23790133237110BD302E0020A1
:1031C000F7B5050000247826154B1979A14209D8D6
:1031D000FFF75CFFAA782B79D2071ED501335BB2CB
:1031E0002B71F7BD9B781B1900930E4BD878021CEE
:1031F000782800D9321CD2B20192FF209F7807F0C4
:103200000BFF60432B793900C018019A009BC0B2B4
:103210000134FFF70BFFE4B2D6E7013BDFE7C0461E
:103220000C090020302E0020F0B501243C4B85B065
:103230001B790500019382780379224216D1002B75
:103240001DD00026019BF0B298421CD3FFF71EFF51
:10325000344E012C5BD13178002954D1304B1B798D
:10326000013BDBB23370297105B0F0BD012464422B
:10327000002BE6D12B4A137001232B71E1E7019B50
:10328000013BDBB2F6E7264B04279A781B780292C3
:10329000D31AC0180023C0B21A00190000F092F926
:1032A000E3B20393002300931E4B1878009B181879
:1032B000C3B240B2362820DD362107F075FE48B291
:1032C00086420FD11848029BC1789B197943891017
:1032D0000A1CC9B2782900D978228178D2B2407804
:1032E000FFF7A4FE039A009B94466344DBB2013FC0
:1032F0000093002FD8D10136A4E70028E0DA019A24
:103300009B1858B2DCE70139CBB22100AAE7044B85
:1033100030781979013007F047FEC9B20B00A1E7F8
:103320000C090020E8120020302E0020F7B50379A8
:103330000600002B08D1304901220B7002212F4BCF
:10334000027119702E4B1A702E4DAB781C00019330
:10335000EB78A3421FD800242979274FA14225D812
:10336000FFF794FE254C264938780B7822781818F8
:103370009A1840B252B238702270002A03DD2A79BE
:10338000013A904206DB5B425BB20B70012B01D12C
:1033900000233371F7BD002328781A00201A190082
:1033A000C0B2013400F00EF9E4B2D1E7200007F01A
:1033B000FBFD0022019BBA565B18DBB2944212DB84
:1033C0000E4A127852B294420DDC0F48C1780A1CA2
:1033D000782900D978228178D2B24078FFF726FE8A
:1033E0000134E4B2B8E72878181A0023C0B21A00F2
:1033F000190000F0E7F8F3E7E7120020FA080020D0
:10340000F90800200C090020302E0020F8B50279C0
:103410002021130055245343891A53430A00060000
:1034200020004A4351435843C91807F0CDFDC7B2A5
:103430000323C0B2292F17D843435B10DB43DCB210
:103440000025184B1A79AA4216D8FFF71FFE3379C8
:103450000121154A002B02D0202B01D1FF21117030
:1034600012789B183371F8BD241A6343DC0FE418FB
:103470006410E443E4B2E3E702223800154202D1CB
:103480005332D01BC0B29B78221C5B19782C00D918
:1034900078220649D2B289780135FFF7C7FDEDB22F
:1034A000CFE7C0460C090020F8080020302E00208D
:1034B000F8B504000025124B1A79AA4207DCFFF781
:1034C000E5FD01222379013313402371F8BD0D4E30
:1034D0009B7827797078B1785B195208AA420BDD86
:1034E000002F0BD0F678321C782E00D97822D2B279
:1034F000FFF79CFD0135DEE7002FF3D00022F7E750
:103500000C090020302E0020F823DB01984205D161
:10351000034B1B685A1E93415B4218407047C046DC
:10352000D8260020002210B5064B074C0748084952
:103530009A6101329C60D86019611C33202AF7D14E
:1035400010BDC046A42A002015750010517500104A
:10355000F17500100200032070B50A4B9C78DE78EC
:10356000651C05400020AE420AD07F300240C901F0
:103570001143E41821711A789D7001321A707E3857
:1035800070BDC04668260020074B8000002900D18E
:10359000064B1B5800205A1C05D0D022120650683A
:1035A000D840012318407047140900201C0900204E
:1035B000034B1A6882431A609A681042FCD0704725
:1035C00000C0004030B50324034D60432C002D188B
:1035D0006970AB70225430BD0411002002790300E1
:1035E00000200A420AD19A780130002A06D01B7ABC
:1035F00011401B0703D54B1E9941C8B270470F23DA
:103600001000120918400B4009090B431043C01A5F
:1036100043425841C0B2F1E710B5002A00D09047AC
:1036200010BD0000064B10B51B78181E07D0054BC7
:103630001B68181E03D01B68181E00D0984710BDC9
:10364000342700206027002070B5164B9B78012B93
:103650000FD1154A12787F2A0BD9C108EF2807D855
:10366000124A5218072101408B4091780B43937006
:1036700070BD0F49012200230C0052428D78A842F0
:10368000F6D0561C02D1002D00D11A000133DDB254
:1036900001315BB2062DF1D1531CE9D0A418A07002
:1036A000E6E7C046600C00208E2E0020A00E002011
:1036B000980E0020014B58787047C046600C0020DF
:1036C000BFF34F8F034B044ADA60BFF34F8FC046FE
:1036D000FDE7C04600ED00E00400FA05002370B5E8
:1036E0001F4CD4306360C17842798578067909022D
:1036F00012020D433243090A032915D008D80129C3
:103700000DD01800022908D1164B63605B2309E035
:103710001800212915D022291AD0236070BD124B20
:10372000636012232000F8E7EDB21800032DF4D8EF
:103730000E4BA900C8580E4B5B5D60600028F1D1AC
:10374000EBE7022AE9D80B4B9200D0580923F4E7A3
:10375000022AE2D8084B9100C858084B9B5CECE762
:103760002410002093B60010EEB6001020B7001011
:103770001CB7001010B7001004B7001000B70010FD
:1037800010B5D430C379084984791B020A782343E1
:10379000022B07D1012A01D0062A02D1034B4A7815
:1037A0005A7010BD014BFBE720100020600C002078
:1037B00001007F23D43170B5040008780340212B29
:1037C00000D091E043B2002B54DA4B78022B37D073
:1037D000032B27D0012B4DD10B798978022B00D9EF
:1037E000A5E0082900D9A2E0544AD25C022A00D9F7
:1037F0009DE094235343524A9B58002B00D196E0FE
:10380000504D5E682A001868B04723004E4AC833FE
:103810001A60AB6C00222100D034CC310B602260E6
:10382000012070BD4A790B7912021A4322D147490F
:10383000474B897819702100C8310B600123EAE7F2
:103840000B798978022B72D8082970D83B4AD25C50
:10385000022A6CD894235343394A9B58002B66D0D4
:103860005A691868904722003A4BC83218701360A2
:103870000123CFE74B780A2B1FD00B2B0ED0092B3F
:1038800032D14A790B7912021A4302239A432BD17F
:1038900022003149C8321160304ABCE74B790A79BD
:1038A0001B02134304D18A78284B511E8A419A7017
:1038B00022000023C8321360ACE7CA78234B1A7089
:1038C0000B798978022B32D8082930D81B48C05C84
:1038D00002282CD89423434319481B58002B26D088
:1038E0001D691868A847E3E76023002598438128ED
:1038F00014D14B78062B11D14B790A7960681B02E1
:10390000466813432000CA788978B047A8420ED091
:1039100023004268C8331A6003687BE7DE2676001E
:103920000F4B5B59002B04D19435B542F8D10020E0
:1039300077E7200098470028F6D071E790B600108E
:10394000400A0020D00F0020D80F0020600C00207B
:103950001D1000201C1000202010002081370010B6
:10396000380A0020704770470368002B07D0910089
:103970001960511E8A41024B19780A431A70704728
:10398000C82600200368181E02D018688008C0B23C
:10399000704700004B1E072B0BD889000B58002BDB
:1039A00007D091001960511E8A41024B19780A43D1
:1039B0001A707047C826002003000020082906D886
:1039C0008900CB58181E02D018688008C0B2704712
:1039D000034A916A936A5B1A9842FBD87047C046C3
:1039E00000400540030010B51B68984203D09C6856
:1039F0008A689442F8D25A680B604A601160596034
:103A000010BD4269036910B5934204D10023C46814
:103A100018009C4201D1100008C80B6010BD0000C6
:103A20000300020010B5D6331B78DE3213707F22FC
:103A30001340064A0400136043681B68002B01D042
:103A4000012198470323237010BDC0460000115088
:103A5000C0224368D20510B5D968DA608368054A88
:103A60000133DB009C58002C02D0D2185068A047CC
:103A700010BDC046981300207F220138C3171340A1
:103A80001B18DB110133DB0102329BB2FF3210B590
:103A900093420ED0FF2480220749D20024025918F5
:103AA0001000214204D0181C934200D9101C80B28F
:103AB00010BD80208000FBE780FDFFFF70B500296E
:103AC0002ED11C4BDC6C01228B1C9B00C01846685D
:103AD000B069837C05685A408274728AAA4200D910
:103AE0002A005E1EB3418026F6001643B6B2406837
:103AF0005B033343104E12183340954202D88022A4
:103B0000D20113430D4A1440802292051443002928
:103B10000BD1084AD4640A4AC90089184B6070BDA9
:103B2000084ACB009B185C68CDE70648CA0012180B
:103B30005460F0E700001150FF7FFFFFFFFFFFAF71
:103B4000800010500000105070B5040001200600E5
:103B50008E400D00618931436181A91C8900611883
:103B600049688E69B260002233607260F2609342ED
:103B700005D0498A013B581807F026FA80B23082F6
:103B800029002000FFF79AFF70BD0300006F10B5F9
:103B90000278042A13D11A007432117801228A4063
:103BA000448922420BD11A695C69A24202D1DC68C5
:103BB000002C04D1DB690432043BFFF7C5FF10BDC4
:103BC00010B5406BFFF7E1FF10BD0000074810B5CE
:103BD0000178052908D10300E0331B78037043689E
:103BE0001B68002B00D0984710BDC0465C25002004
:103BF000054B10B51B68002B04D05B69002B01D06E
:103C00002021984710BDC046602700201349144B5F
:103C100010B50022CB604020124B134C18879C61DA
:103C20005C63802498831A7532331A700F48104BE6
:103C3000A4051C501A600123E2310A800D49D80006
:103C40000D4C4018D9000C198260E267C2600B4825
:103C500001330918CA670F2BF0D110BD5C25002075
:103C6000ECB500107C0C0020000110504C2000002E
:103C700000001150F8FF0F500400105008001050C1
:103C8000064B074A10B51A6000221A710323054A31
:103C900091780B43937006F0E9F910BD302E0020A7
:103CA0000500FF782A2E002010B5044A1379002B56
:103CB00001D0013B137106F0D9F910BD302E002060
:103CC00010B5044A1379022B01D80133137106F0A1
:103CD000CDF910BD302E0020006810B5002806D0A8
:103CE000034B9B6A826443600830FDF7E5F810BD22
:103CF000004005400168130010B5002906D08A6C09
:103D000008331A6408311800FDF7D6F810BD00001A
:103D10000B7810B5082B0AD89B001858002806D03D
:103D2000034B9B6A826443600830FDF7C5F810BD01
:103D300000400540030010B51000082909D889008B
:103D4000C958002905D08A6C083002640831FDF793
:103D5000B3F810BDF7B50231890040184368170069
:103D60005C691B8A216822698E1A9E4200D91E0056
:103D70000023180092198A4258412261820300925E
:103D8000217DB5B20A00501E8241520301920122E8
:103D90004A40A06922759F4200D0A38BC018320010
:103DA000A168FDF789F88420A36800029B19A3602D
:103DB000019B28431843009B1843002F00D00004A8
:103DC000FEBD0000F7B58B1C9B00C3185B680C1E82
:103DD0005F691A4E019023D1194BDB6C0022210040
:103DE00001980093FFF7B6FF3A683B6905009A42D5
:103DF00005D0012221000198FFF7ACFF05436B01BC
:103E000011D5104A009B13401A00A023DB05134371
:103E1000002C0FD10A4AD3641034E4003551F7BDA9
:103E2000CB00F358DAE7084A009B13401A008023BE
:103E30009B05ECE7E200B350EEE7C04600001050EF
:103E400000001150FFFFFFDFFFFFFFAF70B501253E
:103E50008D4004892C4304818C1CA40004196468DF
:103E6000646923600023A2606360E3602361FFF75D
:103E7000A9FF70BD37B5406B446F2378042B11D177
:103E8000030078331D780123AB402289134209D106
:103E900001A9FFF7B6FD021E04D029002000019BF6
:103EA000FFF7D4FF37BD000010B5084B9B78012BFE
:103EB00009D1074B1B787F2B05D91E22054800210D
:103EC000FEF75EFB10BD06220348F8E7600C0020F9
:103ED0008E2E0020A20E00209A0E0020036810B53E
:103EE0000400002B09D018009A6C00210830FEF75E
:103EF00047FB002223681A605A6010BD70B50500A8
:103F0000040024352368002B09D018009A6C002186
:103F10000830FEF735FB002223681A605A6004342B
:103F2000AC42EFD170BD0000F0B58E0085B08619AF
:103F3000009050690C001500F260002803D0202288
:103F40000021FEF71DFBA869002803D01C220021D8
:103F5000FEF716FBF7687E69BD69002C0ED1402381
:103F600080213F4AB383B26134756A612B833D4A35
:103F70003D4B8905AC74D15005B0F0BD002E3AD050
:103F80003A4BE200D3180393394B4020D218002358
:103F9000D36733753A6802930192012A13D1388AA4
:103FA000FFF76AFD802202239200904209D080220E
:103FB0000133D200904204D0431EFF3B5A4253418A
:103FC0009BB2DB060293009AE23294466346118864
:103FD00042008A181A80274BB083CA18019B81318E
:103FE000B261FF319A060A43802109061143039A00
:103FF000029B02C2D367002DBED01C4BE400E61822
:104000001D4B4020E4180023E367AB743C68012C8F
:1040100012D1388AFFF730FD8022022392009042AD
:1040200009D080220133D200904204D0431EFF3BCE
:104030005A4253419BB2DB06009AA406E232118831
:104040000F1817800B4A28838A186A6180228131F1
:10405000FF310C431206224372600836F3678BE788
:1040600000011050000011504C20000000001050C2
:10407000040010508001105008001050F8B51E00C8
:1040800006AB04001D88002A0ED00C2007006743F1
:10409000134BFF5C974200D23A0060431B185888CC
:1040A000104BC018FCF708FF200006F0D3FC071ED9
:1040B00013D0002D11D00C210A006243084B9A182E
:1040C00010792A00A84200D2020061435B18D98807
:1040D000044B3000C918FCF7EFFE3800F8BDC046AD
:1040E000F40B00200027002030B50F24012385B0F9
:1040F0006C4423700B4B0C4D1B78092B0BD9002300
:104100002B7000230122210008200093FFF7B6FF47
:104110002070287002E02B78002BF2D0207805B0B8
:1041200030BDC046DC260020DD26002010B5036827
:104130009C68A2420CD85C688A600B604C6021606D
:10414000596099688A1A9A6001235B42836010BDA6
:104150001B68121BECE70000F0B5142900D21421F3
:10416000D02614220D4C0E4D3606336847189B009E
:10417000E3185B689B6A04339B005F51AB6A181AB3
:10418000814203D8013211001800EEE7142A03D946
:104190000123E2681343E360F0BDC0461814002019
:1041A0000040054070B50468C2608B6048600C60D8
:1041B00061600160142B00D21423D0210906096824
:1041C000154C890061184968D5188E6A1349301D4D
:1041D000800045500120B04048638D6B28438863C0
:1041E00014208D6AAE1AB3420ED8431CD0200006AC
:1041F0000068D218800020184068806A043080006F
:104200000A5018002A00ECE7142803D90123E268B9
:104210001343E36070BDC046181400200040054001
:1042200000238268037503691B6899689142FBD279
:104230005A6803604260106058607047D0221206CE
:104240001168084B89005B185B68016910B59942D9
:1042500005D0136D9B0702D501235B425365FFF721
:10426000DFFF10BD18140020EFF3108072B6034A70
:104270001368002BFCD0BFF35F8F70472C0100D078
:1042800007B500236A46D3716B460122D91D06F09B
:10429000D3F86B46D8790EBD030070B50020032B10
:1042A00016D8072914D8062A12D80E244C435200D7
:1042B000A41870225343E41820002930FFF7E0FFD0
:1042C000050220002A30FFF7DBFFADB2284380B2A1
:1042D00070BD00000E4B37B51C68002301AD29806E
:1042E0009C4208D1697823002A78F02905D1F02A68
:1042F00001D1084B1B8818003EBD0729FBD8062AB0
:10430000F9D80328F7D8FFF7C7FF0300F3E7C04643
:104310003827002036270020F0B503240127104A53
:10432000104B12781B7885B001AE1A433080009292
:10433000009B23413B4205D1013CF9D200252800D6
:1043400005B0F0BD328803AB1A80E5B203992800AE
:10435000FFF7C0FFFEF71EFD80B20128ECD0EEE7AC
:104360003C2E00203B2E002013B54379008801AA83
:1043700010800198002B0DD000290BD0FFF7CCFF47
:10438000040001000198FEF78FFB20000199FFF760
:10439000A1FF16BDFEF7B0FB0400F6E71FB501ACA8
:1043A00020800198FFF7B8FF228803AB1A80039999
:1043B000FFF790FFFEF7EEFC04B010BD10B500242F
:1043C0000379A34217D00088FFF7E8FFC2B20004C8
:1043D000030F062B18D00F21062B0ED80E330B40DF
:1043E000012B08D80124F02A05D008D80024E7239F
:1043F00093426441E4B2200010BD0633EFE7F43A83
:1044000053425A41D4B2F6E70124E72AF3D9F13AEC
:10441000F6E70000F8B504000E00170005002B1B9E
:104420009BB2B34200D3F8BD064A1B190020934249
:1044300003D8054BE818FFF723FF3B1B5855013500
:10444000EDE7C046560B0000A904000013B56B460B
:10445000DC1D22000121FFF7DDFF207816BD10B51D
:104460002520FFF70DFF052801D0002010BD2620D4
:10447000FFF706FF4D28F8D12638FFF701FFB238C5
:1044800043425841F2E710B52820FFF7F9FE10BD6E
:1044900007B500236A46D3806B460222991D05F0BA
:1044A000CBFF6B46D8880EBD37B50D000400FFF773
:1044B000EFFFA84206D06B460222991D20000D8016
:1044C00005F026FF37BD00000A4910B54A785307AA
:1044D000DB0F83420CD00123034004209B00824366
:1044E0001A434A700988FFF7DFFF0220FEF750FBEE
:1044F00010BDC0468E2E002073B50026042201A9EF
:104500000820019605F098FF044C019D23202560AA
:104510006660FFF7B5FE2560606073BD302E002039
:10452000F0B51027244C254E85B001AD0A22290094
:10453000300005F081FF20003A0000210830FEF72E
:104540001FF809222B882380AB79A370AB88E37016
:10455000EB7923712B7A63716B88E380AA566B7AAF
:10456000002A01DB164A62610122134200D0227246
:104570000222134202D0217A0A43227204221342F9
:1045800002D0217A0A4322720822134202D0217AF1
:104590000A4322723B4202D0227A3A4322722022FC
:1045A000134202D0237A1A432272064B0A36183479
:1045B0009E42BAD105B0F0BD9027002069030000EB
:1045C000B8110020A904000010B501000822012044
:1045D00005F076FF10BD10B501002022002005F087
:1045E0006FFF10BD0A0010B5202903D10100022081
:1045F00005F066FF10BD0000F0B5837885B002932A
:1046000003790024019301230371454BDB785B0898
:104610007F33DB090393434B1B79A34203D8FEF797
:1046200035FD05B0F0BD029B3F4E022B07D8052398
:104630003B4A63435178F1549278F3185A70019BC6
:10464000002B1CD105336343019AF318DA709A707A
:10465000052262433448334B82189B7891781B19AA
:104660000A1C782900D97822052565434119497823
:10467000405DD2B20134FEF7D9FCE4B2CBE70527A6
:104680006743F519E878002817D0FF260138C0B233
:104690002979E870704306F0BFFC244F3040385C45
:1046A000BB212238C0B2704306F0B6FC1C4A06405B
:1046B000D07870430012A870CAE7FCF775FCFF21A0
:1046C00006F072FC039B9942C2DA029B022B0FD9BF
:1046D000FCF76AFCFF2106F067FCF155FCF764FC6F
:1046E0000F4B9E787608310006F05EFC76186E70EF
:1046F00005210A00002062430B4B9A189070084A6B
:10470000D078021CC82806D9094A127861435B1880
:104710001A71DA709CE7C0B21428F7D21422F5E7B8
:10472000302E00200C090020D9110020B6B900104D
:1047300000B400100C220021F0B587B000AFB8180B
:10474000B960FDF71DFFB623164D174E7B602C0098
:10475000102D00D910246B466A463B60E31DDB0830
:10476000DB00D31A9D4622006946300005F064FE46
:10477000082322006946F818FEF72AF9002805D018
:10478000082322003000F91805F0C2FD3B683619F5
:104790009D467B682D1B013B7B60002BD7D1BD461E
:1047A00007B0F0BD570B0000A904000010B505F0DC
:1047B0006BFC0000D0231B061A68084B92009B1864
:1047C0005B6810B5D9680875186802681A6053608C
:1047D00001220275D860FBF779FD10BD1814002086
:1047E0008322534B920010B5DA620022AA21514B6A
:1047F00009019A67504A514811602131FF31D16057
:104800004F49086051680029FCDA01214D4A1160C6
:104810005A6C012AFCD103214B4A11609A6B012A80
:10482000FCD14A4B1A68002A11DA3F211A680A4063
:10483000012A0CD19A681205120D7D2A07D1EE21AA
:10484000DA68C9020A40C421C9028A421AD0802209
:104850003F4952010A603F493F480A60140081689D
:104860008C43211EFAD101221A607C329A603B4AA5
:104870002131116019680029FCDAC421C902D9600C
:1048800008231360364B1A68002A11DA3F211A6890
:104890000A40012A0CD19A681205120D642A07D128
:1048A000EE21DA68C9020A40AA21C9028A421AD056
:1048B0008022274992010A60264927480A6014008D
:1048C00081688C43211EFAD101221A6063329A60FA
:1048D000244A2131116019680029FCDAAA21C90291
:1048E000D96008231360204B02211A00042005F030
:1048F000D9FB1E4B01211A00052005F0D3FB1C4BF0
:1049000000211A00072005F0CDFB194B00211A00E9
:10491000082005F0C7FB00210920164B144A05F0BA
:10492000C1FB124B00211A00062005F0BBFB10BD95
:1049300000800540008000400040024000B0FA00C6
:10494000006002403CB0004030B0004000800240B7
:1049500000E0004000F0004000C0004004B0024011
:1049600000C0024004F00240001BB700405973072A
:10497000006CDC021BB7000070470000014B800098
:10498000C05870477013002037B50D000400FFF7C2
:1049900077FCA84206D06B460122D91D20000D707D
:1049A00005F0B6FC37BD70B51D00032814D80729E3
:1049B00012D8062A10D80E2470234C4343435200C9
:1049C000A418E4182000290A2930FFF7DDFF200091
:1049D000E9B22A30FFF7D8FF70BD0000F0B5244BD4
:1049E00087B01A680025019201221A6070246C4376
:1049F000204B0027E4180DE07300F2B2E35AF9B23D
:104A0000E8B20136FFF7CFFF072EF5D101370E349C
:104A1000082F01D00026EFE70135042DE6D1002351
:104A200002AA03930493144CB433938120000A2206
:104A300003A905F06DFC114B0A349C42F6D1092202
:104A4000002103A8FDF79CFD012302AA5B4213810C
:104A50000833537320000A2203A905F059FC084BC0
:104A60000A349C42F6D1024B019A1A6007B0F0BD9D
:104A7000D826002030B7001029020000690300008A
:104A8000A904000010B5FF212520FFF77DFFFF21BD
:104A90002620FFF779FFFF212720FFF775FF002170
:104AA0002820FFF771FFFFF799FFFFF743FE05216D
:104AB0002520FFF769FF4D212620FFF765FFB22172
:104AC0002720FFF761FF10BD002337B50D0004223A
:104AD00001A90193040005F0AFFC019B9D4205D0A4
:104AE0000422200001A9019505F012FC37BD000049
:104AF000044A054B0220D15C002901D10138D05471
:104B00007047C0462814002004100000044A054BDA
:104B10000220D15C002902D000210138D154704715
:104B2000281400200410000070B58025044C6D018D
:104B30002A0000212000FDF723FD024B635170BDC8
:104B4000281400200810000010B5EFF3108372B68F
:104B5000054C2360FF235B03C01806F04DFA236861
:104B600083F31088012010BDEC12002010B5EFF384
:104B7000108372B6044C236006F046FA236883F370
:104B80001088012010BDC046EC120020F0B58DB099
:104B9000FFF7ECFF0024A04256D0FFF7A9FF8022C8
:104BA0002B4D0990290020001201FFF7CDFFA042F4
:104BB00040D0284828492B5D0F0043401E001B02AF
:104BC00007930023122206933000002306F00CFA0C
:104BD000F30E7A011A43730101920093009A019B2C
:104BE0008018594180197941730EFA011A43F30173
:104BF00003920293029A039B80185941330E3A02A2
:104C00001A43330205920493049A059B8018594174
:104C1000069A079B80185941802301345B019C420E
:104C2000C9D10A900B91042220000AA9FFF78CFF3A
:104C30004400E4B2099B012B01D1FFF767FF8022FA
:104C4000034B06495201995020000DB0F0BDC046FB
:104C50002814002025232284E49CF2CB08100000B5
:104C600080218022054B49015B58012010B592013B
:104C7000934201D3FFF78AFF10BDC04628140020DD
:104C800037B580246A46094D64012B59911D08806F
:104C900001221800FFF758FF03000020834204D0D0
:104CA0002B5902332B51FFF7DBFF3EBD28140020A8
:104CB000F0B587B003933C4B050018780F00140043
:104CC000C2073ED55978A94205D19A78BA4202D195
:104CD000DB78A34204D00223344A9678334393709E
:104CE000314E334A33789B08D25C01932F4B1A70B4
:104CF00003239843042814D104AB1D705F70231C58
:104D0000782C00D9782304AA93700498FEF738F918
:104D100001040202090EC0B2120EFEF7D3F92900F7
:104D200006E0092A04D00ED8022A20D0062AF6D19D
:104D30001D4B59709F70DC70039B002B01D005F058
:104D400095F907B0F0BD192AE9D101210026019B90
:104D5000193BDAB20B401749520801938B5C02935E
:104D6000154B1979B14204D8FEF790F9D7E7F478DA
:104D7000D5E70298704306F04FF9019AC3B2E81ADA
:104D8000C0B2002A01D1EB18D8B20B4B221C9B7881
:104D90009B19782C00D978223900D2B20136FEF75F
:104DA00045F9F6B2DCE7C046302E00202A2E00205E
:104DB000BBBA0010B6BA00100C09002010B5054BA4
:104DC0005878DA780A309978C0B20123FFF770FF7B
:104DD00010BDC046302E002010B5054B5878DA784B
:104DE0000A389978C0B20123FFF762FF10BDC046B0
:104DF000302E002010B507488378C2781133191C73
:104E0000FF2B00D9FF2101234078C9B2FFF750FFE3
:104E100010BDC046302E002010B507488378C278F8
:104E2000113B191C002B00DA002101234078C9B284
:104E3000FFF73EFF10BDC046302E002010B50748DA
:104E4000C37811331A1CFF2B00D9FF22817801236C
:104E50004078D2B2FFF72CFF10BDC046302E0020A4
:104E600010B50748C378113B1A1C002B00DA00224A
:104E7000817801234078D2B2FFF71AFF10BDC046F7
:104E8000302E00200022034B99785A7004320A43D6
:104E90009A7070472A2E002010B50124064A137814
:104EA000A3431370FFF7EEFF044B9A7814439C70F2
:104EB000FEF7ECF810BDC046302E00202A2E002050
:104EC00072B6D021BE22090652008B58002BFCD0AE
:104ED000BFF35F8F7047BFF35F8FD023BE221B06E7
:104EE00052009B5062B6704770B50600C43604008D
:104EF0003078002842D00638C3B20F2B34D80F28A0
:104F000032D8FBF79BFF3B3131082532313131314B
:104F1000313131313B3B2300CC339A7B18680E335F
:104F20005B781B021343984212D2E368198A06F099
:104F300053F80D1E0CD1FFF7C3FF2B002A002900E8
:104F40002000FEF783FFFFF7C6FF0A2333700BE054
:104F500014233370FFF7B4FF002320001A00190058
:104F6000FEF7F2FDFFF7B7FF70BD2300D0331B68DB
:104F7000002B01D0200098470023E7E701230C49CC
:104F80000C480D4D43508023EA6F1B011A43EA671A
:104F900002224250094AD16F0B43D36763681B68F2
:104FA000002B02D00621200098470623CEE7C046FA
:104FB000682000000000115004001050080010503C
:104FC00070B50500C4352B780400142B31D021D8DE
:104FD000062B06D002D8002B03D070BD093B022B54
:104FE000FBD801231A491B481B4E43508023F26F04
:104FF0001B011A43F26702224250184AD16F0B4339
:10500000D36763681B68002B02D0062120009847F5
:1050100006231AE0152BE0D10A3B2B70FFF750FF57
:10502000002320001A001900FEF710FFFFF753FFBE
:10503000D3E7C3689B695B68002BCED10300D033F4
:105040001B68002B00D0984700232B70C5E7C04693
:10505000682000000000115004001050080010509B
:1050600010B50C00FFF72CFF207D052807D8FBF7B3
:10507000E5FE0C060603130F0022A3691A60012344
:105080005B422000A361FFF7CBF8FFF724FF10BDC0
:10509000A2699368013393606268236813605A6061
:1050A000EDE70000D0231B061B68F7B52F4A9B00D5
:1050B000D3185D6801922E0010362C692C4FEB69D5
:1050C000B86AA268C11A8A4247D89B18EB61626825
:1050D0000093236813605A60002323602B699E426B
:1050E0000CD1D0231B061B6801999B00CB18012112
:1050F0005B68BA6B9B6A99408A43BA63FFF7EBFE21
:105100002000E36821699847FFF7DAFE6269002A08
:10511000D3D0B96A009B2869CF1ABA4210D2134B78
:105120000093DB689C46022362461343009AD360D7
:10513000864210D03A0021003000FEF7F7FFBCE7AE
:105140008642F8D1009B521AD3180A003000210081
:10515000FFF728F8F7BD0023F7E7A642FAD0191A9F
:105160008918E861A160FEF7F7FFF3E71814002043
:1051700000400540036870B50400002B01D10020F9
:1051800070BDFFF79DFE23681D685C68FFF7A3FEF6
:10519000002DF4D00A4BFA22986A9200001B0024DA
:1051A0000023210005F020FF0023064A8018594102
:1051B0000023054A05F000FFA8426441E0B2DFE7A2
:1051C000004005403F420F0040420F0070B50829E3
:1051D00001D9002070BD890044182368002BF8D045
:1051E000FFF76EFE23681D685C68FFF774FE002DF4
:1051F000EFD00B4BFA22986A9200001B0024002388
:10520000210005F0F1FE0023064A801859410023D1
:10521000054A05F0D1FEA8426441E0B2DAE7C04693
:10522000004005403F420F0040420F000B00113389
:105230009B00C318F7B55C6805000E00002C58D021
:10524000FFF73EFE230000228C331A702269636947
:105250009A4202D1E368002B2BD1B31C9B00EB18C0
:105260005B685B691B68002B23D0230090331F68A9
:10527000002F08D001A92000FEF7C3FBBB68010086
:10528000019A38689847E368E2690133E36063692B
:105290009B18A2696361934201D3636A63612068CA
:1052A000A04206D0036823605C6000238361FEF7A0
:1052B000C5FF200001A9FEF7A4FB019B021E12D12D
:1052C000B31C9B00EB185B681A68022A0FD15A695D
:1052D000116800290BD01A8A0B00013A13401142C1
:1052E00005D12A00D43231002800FEF7AFFDFFF7C8
:1052F000F2FDF7BD0B0021339B0070B51C58060072
:105300000D00002C2FD00235AD007619FFF7D8FD27
:1053100073689B695B68002B20D0230074331B7873
:10532000226F02339B00D3185B689B695A6823691C
:105330001A60E2680132E260E2699B18A2692361A7
:10534000934201D3636A23612068844206D00368D4
:1053500023605C6000238361FEF770FF2000FEF78E
:1053600014FCFFF7B8FD70BD70B50500FFF7A8FD90
:105370002A696B6900249A420BD1EB68A34208D0DA
:105380006B6F78352A78013494401B891C40634246
:105390005C41FFF7A0FD200070BD00001A4AF8B57F
:1053A0001A4B1268DB68D200D3400F22FA21134057
:1053B000174801335843890005F006FE154B596A1A
:1053C0000A009E6A596A9142FAD100241930FF30CE
:1053D00032000B000600270092197B410E4D2A6017
:1053E0006B60FFF76DFD0D4B9A6801329A60A24227
:1053F00006DC18680268536084611A60FEF71EFFBD
:10540000FFF769FDF8BDC046F408002000002050F9
:105410003075000000400540B0110020E808002071
:10542000030070B541183125FF208B4200D170BDBB
:1054300008241A78504046B24200D0B2002E01DA59
:105440006A40D0B2013C002CF5D10133EDE70000F9
:1054500010B51F2807D80A225043044BC01804F087
:10546000EBFF002010BD01204042FBE729020000B5
:1054700010B5104B9A78012A0FD10F4B1B787F2B58
:105480000BD9C108EF2807D80C4B5B180721014046
:105490008A4099789143997010BD00231900084AF9
:1054A0009478844200D191700133DBB20132062B33
:1054B000F6D1F1E7600C00208E2E0020A00E002017
:1054C000980E002070B5FFF78BF9074C074B226848
:1054D00000259A4205D006482360FEF779FA256038
:1054E00070BD256004F0D0FD58330020BAB0FECA6C
:1054F00020A107007047FEE770B5124C6268206873
:105500001100A3688B4219D8D11E00208B4203D30F
:1055100003339B1A9B0898001018E368C11E0022F1
:10552000994203D803331A1A920892000021FDF71A
:1055300027F8054B10349C42E0D170BD20C820C133
:10554000E0E7C04610B6001090B6001072B6D02149
:1055500009060B68054A9B00D3185B68986502230F
:105560005B424B6505331370FEE7C04618140020FC
:10557000D0231B061A680E4B92009B185B6810B56F
:105580001868D96802681A60536001220275D860F1
:1055900000238A680B750B691B689C689442FBD8D2
:1055A0005A680B604A6011605960FAF78FFE10BDAF
:1055B00018140020D02212061368F0B53B4F9B0050
:1055C000FB185B688BB0DB68039002934B1C68D0C0
:1055D000136804AC9B00FB185B68354D1A00103251
:1055E0000192029A18692261324A019EE260002209
:1055F0006261AA6A864221D10B0030002100FEF7C9
:10560000D1FD0398FFF7D6F8049B002B12D0D021D0
:1056100009060A689200BA1852681069A0421FD0A1
:105620006168A0680B605960996809189960012346
:105630005B429361029B98690BB0F0BDDB69D31AA2
:10564000CE18B34200D90E008368B34202D91000CD
:10565000FEF782FD320021000198FEF767FDD0E7DA
:1056600010000026103013612660586083420AD172
:105670000B68AA6B9B00FB185B68996A01238B403F
:105680009A43AA63D6E79968A06809189960A86A3E
:10569000D369C21A9142CDD9C918091AFEF75CFD27
:1056A000C8E70398FFF786F8C4E7C046181400203F
:1056B000004005406150001010B50400FFF700FCE9
:1056C00021000820FFF776FFFFF705FC10BD000062
:1056D000D0231B061A68074B92009B185B6810B515
:1056E0001A68DB6892689B689A4201D9FFF740FF0D
:1056F00010BDC04618140020F8B5EFF31083012543
:105700009D4303D0EFF30583FFF7DAFB184B194EE7
:1057100019489C6A01683368184AE41AA14208D9FA
:10572000174F1168E419174FDB193360164BC9186E
:10573000116016680460002D05D0EFF30583DB05CA
:1057400012D0FFF7C8FBFA220023200092000021AC
:1057500005F04AFC00230D4A8018594100230C4AE9
:1057600005F02AFC3018F8BDFFF7B2FFE9E7C046A4
:105770000040054038250020342500203025002039
:1057800080C20E00803DF1FF708541003F420F0056
:1057900040420F00094B10B55B785B070AD5084BF8
:1057A000C20011431970FDF76BF9FFF7A5FF054B18
:1057B000188010BDFDF764F9FBE7C0468E2E00206F
:1057C0003E2E0020402E002070B51D4A1D4B14783F
:1057D0001B781D4D1C432B78002B25D0FFF78CFF29
:1057E0001A4B1B88C01A1A4B80B2984201D9FDF798
:1057F000F7F9184B2D789B78012B1DD1164B1B7890
:105800007F2B19D91D23154A00211078002801D0BB
:105810000131C9B2013BDBB20132FF2BF5D10029C6
:1058200001D0FDF7DDF92C4320000D4B1A780D4B0C
:1058300090431B78184370BD05230B4AE4E7C0462C
:10584000392E00203D2E0020382E0020422E002030
:1058500087130000600C00208E2E0020A20E002076
:105860008D2700208C2700209A0E002070B51F4B3A
:105870009B78012B20D11E4B1B787F2B1CD9FFF767
:10588000A3FF1C4C1C4D6070202229002000FDF756
:105890009FF8002828D0202221002800FBF70CFBCD
:1058A000164B1B68002B1FD09B68002B1CD00622B8
:1058B00022702000984717E0FFF786FF104C114D2B
:1058C0002070082229002000FDF782F800280BD064
:1058D000082221002800FBF7EFFA084B1B68002B79
:1058E00002D05B68002BE4D170BDC046600C002084
:1058F0008E2E0020A00E00203E27002060270020D2
:10590000980E00206427002010B5041E28D0031F25
:10591000DBB2A02B25D81A4B9A78012A13D1194B48
:10592000197800237F290FD9174BC1085B18997884
:10593000072303409A400A420DD02000FFF798FD4C
:10594000FFF794FF07E00023104AD15CA142F4D096
:105950000133062BF9D12000FDF776FEFFF786FF15
:1059600010BD03002033DBB2072BF9D807231C40FE
:10597000063BA340064A11780B431370EEE7C0467E
:10598000600C00208E2E0020A00E00209A0E002019
:10599000392E00200300E03B10B50400072B02D98C
:1059A0000549002800D105492000FDF75AF8E0B26A
:1059B000FFF7AAFF10BDC046A15A0010795A001087
:1059C00010B5002807D0031FDBB2A02B04D8FFF7C7
:1059D0004FFDFFF74BFF10BD03002033DBB2072B59
:1059E000F9D807231840063B8340D8B2FDF7F0F8FA
:1059F000EFE7000070B504000D00FFF785FF012000
:105A0000002D0ED000230A4A2800002105F0ECFAF0
:105A10000023084A80185941FA220023920005F019
:105A2000CBFAFFF749FE2000FFF7CAFF70BDC04662
:105A300040420F00E703000070B500200324012559
:105A40000C4AD3789178994213D0D118013323406E
:105A50000979D3705378C90901335370002902D1F1
:105A60000A214B2001E00A214E20FFF7C3FF280046
:105A7000E6E770BD6826002010B5002805D0034B6E
:105A80001A7810431870FFF7F1FE10BD392E002070
:105A900010B5002803D0FDF79BF8FFF7E7FE10BD17
:105AA00010B5002805D0034B1A7810431870FFF783
:105AB000DDFE10BD3D2E002010B5002805D0034AA4
:105AC000137883431370FFF7D1FE10BD3D2E0020E5
:105AD00010B50024044B1C70FEF7E6F9034B1C7054
